{
  "_format": "hh-sol-artifact-1",
  "contractName": "DIDRegistry",
  "sourceName": "contracts/DIDRegistry.sol",
  "abi": [
    {
      "anonymous": false,
      "inputs": [
        {
          "indexed": true,
          "internalType": "address",
          "name": "owner",
          "type": "address"
        },
        {
          "indexed": false,
          "internalType": "string",
          "name": "did",
          "type": "string"
        },
        {
          "indexed": false,
          "internalType": "bytes32",
          "name": "docHash",
          "type": "bytes32"
        }
      ],
      "name": "DIDRegistered",
      "type": "event"
    },
    {
      "inputs": [
        {
          "internalType": "address",
          "name": "owner",
          "type": "address"
        }
      ],
      "name": "getByOwner",
      "outputs": [
        {
          "components": [
            {
              "internalType": "string",
              "name": "did",
              "type": "string"
            },
            {
              "internalType": "bytes32",
              "name": "docHash",
              "type": "bytes32"
            },
            {
              "internalType": "uint256",
              "name": "updatedAt",
              "type": "uint256"
            }
          ],
          "internalType": "struct DIDRegistry.DIDRecord",
          "name": "",
          "type": "tuple"
        }
      ],
      "stateMutability": "view",
      "type": "function"
    },
    {
      "inputs": [
        {
          "internalType": "address",
          "name": "",
          "type": "address"
        }
      ],
      "name": "records",
      "outputs": [
        {
          "internalType": "string",
          "name": "did",
          "type": "string"
        },
        {
          "internalType": "bytes32",
          "name": "docHash",
          "type": "bytes32"
        },
        {
          "internalType": "uint256",
          "name": "updatedAt",
          "type": "uint256"
        }
      ],
      "stateMutability": "view",
      "type": "function"
    },
    {
      "inputs": [
        {
          "internalType": "string",
          "name": "did",
          "type": "string"
        },
        {
          "internalType": "bytes32",
          "name": "docHash",
          "type": "bytes32"
        }
      ],
      "name": "registerDID",
      "outputs": [],
      "stateMutability": "nonpayable",
      "type": "function"
    }
  ],
  "bytecode": "0x608060405234801561001057600080fd5b50610aca806100206000396000f3fe608060405234801561001057600080fd5b50600436106100415760003560e01c806317cab9c814610046578063379c513114610062578063469e906714610092575b600080fd5b610060600480360381019061005b919061045e565b6100c4565b005b61007c6004803603810190610077919061051c565b6101e5565b6040516100899190610651565b60405180910390f35b6100ac60048036038101906100a7919061051c565b6102e3565b6040516100bb939291906106db565b60405180910390f35b604051806060016040528084848080601f016020809104026020016040519081016040528093929190818152602001838380828437600081840152601f19601f820116905080830192505050505050508152602001828152602001428152506000803373ffffffffffffffffffffffffffffffffffffffff1673ffffffffffffffffffffffffffffffffffffffff16815260200190815260200160002060008201518160000190816101769190610954565b5060208201518160010155604082015181600201559050503373ffffffffffffffffffffffffffffffffffffffff167f25d3b4204ca0a57fc7ec9c9586bbcc79700b8309187421d50045ca86a4b082528484846040516101d893929190610a62565b60405180910390a2505050565b6101ed610395565b6000808373ffffffffffffffffffffffffffffffffffffffff1673ffffffffffffffffffffffffffffffffffffffff16815260200190815260200160002060405180606001604052908160008201805461024690610777565b80601f016020809104026020016040519081016040528092919081815260200182805461027290610777565b80156102bf5780601f10610294576101008083540402835291602001916102bf565b820191906000526020600020905b8154815290600101906020018083116102a257829003601f168201915b50505050508152602001600182015481526020016002820154815250509050919050565b600060205280600052604060002060009150905080600001805461030690610777565b80601f016020809104026020016040519081016040528092919081815260200182805461033290610777565b801561037f5780601f106103545761010080835404028352916020019161037f565b820191906000526020600020905b81548152906001019060200180831161036257829003601f168201915b5050505050908060010154908060020154905083565b60405180606001604052806060815260200160008019168152602001600081525090565b600080fd5b600080fd5b600080fd5b600080fd5b600080fd5b60008083601f8401126103e8576103e76103c3565b5b8235905067ffffffffffffffff811115610405576104046103c8565b5b602083019150836001820283011115610421576104206103cd565b5b9250929050565b6000819050919050565b61043b81610428565b811461044657600080fd5b50565b60008135905061045881610432565b92915050565b600080600060408486031215610477576104766103b9565b5b600084013567ffffffffffffffff811115610495576104946103be565b5b6104a1868287016103d2565b935093505060206104b486828701610449565b9150509250925092565b600073ffffffffffffffffffffffffffffffffffffffff82169050919050565b60006104e9826104be565b9050919050565b6104f9816104de565b811461050457600080fd5b50565b600081359050610516816104f0565b92915050565b600060208284031215610532576105316103b9565b5b600061054084828501610507565b91505092915050565b600081519050919050565b600082825260208201905092915050565b60005b83811015610583578082015181840152602081019050610568565b60008484015250505050565b6000601f19601f8301169050919050565b60006105ab82610549565b6105b58185610554565b93506105c5818560208601610565565b6105ce8161058f565b840191505092915050565b6105e281610428565b82525050565b6000819050919050565b6105fb816105e8565b82525050565b6000606083016000830151848203600086015261061e82826105a0565b915050602083015161063360208601826105d9565b50604083015161064660408601826105f2565b508091505092915050565b6000602082019050818103600083015261066b8184610601565b905092915050565b600082825260208201905092915050565b600061068f82610549565b6106998185610673565b93506106a9818560208601610565565b6106b28161058f565b840191505092915050565b6106c681610428565b82525050565b6106d5816105e8565b82525050565b600060608201905081810360008301526106f58186610684565b905061070460208301856106bd565b61071160408301846106cc565b949350505050565b7f4e487b7100000000000000000000000000000000000000000000000000000000600052604160045260246000fd5b7f4e487b7100000000000000000000000000000000000000000000000000000000600052602260045260246000fd5b6000600282049050600182168061078f57607f821691505b6020821081036107a2576107a1610748565b5b50919050565b60008190508160005260206000209050919050565b60006020601f8301049050919050565b600082821b905092915050565b60006008830261080a7fffffffffffffffffffffffffffffffffffffffffffffffffffffffffffffffff826107cd565b61081486836107cd565b95508019841693508086168417925050509392505050565b6000819050919050565b600061085161084c610847846105e8565b61082c565b6105e8565b9050919050565b6000819050919050565b61086b83610836565b61087f61087782610858565b8484546107da565b825550505050565b600090565b610894610887565b61089f818484610862565b505050565b5b818110156108c3576108b860008261088c565b6001810190506108a5565b5050565b601f821115610908576108d9816107a8565b6108e2846107bd565b810160208510156108f1578190505b6109056108fd856107bd565b8301826108a4565b50505b505050565b600082821c905092915050565b600061092b6000198460080261090d565b1980831691505092915050565b6000610944838361091a565b9150826002028217905092915050565b61095d82610549565b67ffffffffffffffff81111561097657610975610719565b5b6109808254610777565b61098b8282856108c7565b600060209050601f8311600181146109be57600084156109ac578287015190505b6109b68582610938565b865550610a1e565b601f1984166109cc866107a8565b60005b828110156109f4578489015182556001820191506020850194506020810190506109cf565b86831015610a115784890151610a0d601f89168261091a565b8355505b6001600288020188555050505b505050505050565b82818337600083830152505050565b6000610a418385610673565b9350610a4e838584610a26565b610a578361058f565b840190509392505050565b60006040820190508181036000830152610a7d818587610a35565b9050610a8c60208301846106bd565b94935050505056fea26469706673582212202ae664aaff72b9fd38bcc06bcb2d8bccd54cf79d851bf007a482c5871abc1faa64736f6c63430008140033",
  "linkReferences": {},
  "deployedLinkReferences": {}
}