{
  "_format": "hh-sol-artifact-1",
  "contractName": "TrustBadgeRegistry",
  "sourceName": "contracts/TrustBadgeRegistry.sol",
  "abi": [
    {
      "inputs": [],
      "stateMutability": "nonpayable",
      "type": "constructor"
    },
    {
      "inputs": [
        {
          "internalType": "address",
          "name": "owner",
          "type": "address"
        }
      ],
      "name": "OwnableInvalidOwner",
      "type": "error"
    },
    {
      "inputs": [
        {
          "internalType": "address",
          "name": "account",
          "type": "address"
        }
      ],
      "name": "OwnableUnauthorizedAccount",
      "type": "error"
    },
    {
      "anonymous": false,
      "inputs": [
        {
          "indexed": true,
          "internalType": "string",
          "name": "recruiterDid",
          "type": "string"
        },
        {
          "indexed": false,
          "internalType": "uint8",
          "name": "level",
          "type": "uint8"
        }
      ],
      "name": "BadgeIssued",
      "type": "event"
    },
    {
      "anonymous": false,
      "inputs": [
        {
          "indexed": true,
          "internalType": "string",
          "name": "recruiterDid",
          "type": "string"
        }
      ],
      "name": "BadgeRevoked",
      "type": "event"
    },
    {
      "anonymous": false,
      "inputs": [
        {
          "indexed": true,
          "internalType": "string",
          "name": "recruiterDid",
          "type": "string"
        }
      ],
      "name": "BadgeSuspended",
      "type": "event"
    },
    {
      "anonymous": false,
      "inputs": [
        {
          "indexed": true,
          "internalType": "address",
          "name": "previousOwner",
          "type": "address"
        },
        {
          "indexed": true,
          "internalType": "address",
          "name": "newOwner",
          "type": "address"
        }
      ],
      "name": "OwnershipTransferred",
      "type": "event"
    },
    {
      "inputs": [
        {
          "internalType": "string",
          "name": "recruiterDid",
          "type": "string"
        }
      ],
      "name": "getBadge",
      "outputs": [
        {
          "internalType": "uint8",
          "name": "level",
          "type": "uint8"
        },
        {
          "internalType": "enum TrustBadgeRegistry.Status",
          "name": "status",
          "type": "uint8"
        }
      ],
      "stateMutability": "view",
      "type": "function"
    },
    {
      "inputs": [
        {
          "internalType": "string",
          "name": "recruiterDid",
          "type": "string"
        },
        {
          "internalType": "uint8",
          "name": "level",
          "type": "uint8"
        }
      ],
      "name": "issueBadge",
      "outputs": [],
      "stateMutability": "nonpayable",
      "type": "function"
    },
    {
      "inputs": [],
      "name": "owner",
      "outputs": [
        {
          "internalType": "address",
          "name": "",
          "type": "address"
        }
      ],
      "stateMutability": "view",
      "type": "function"
    },
    {
      "inputs": [],
      "name": "renounceOwnership",
      "outputs": [],
      "stateMutability": "nonpayable",
      "type": "function"
    },
    {
      "inputs": [
        {
          "internalType": "string",
          "name": "recruiterDid",
          "type": "string"
        }
      ],
      "name": "revokeBadge",
      "outputs": [],
      "stateMutability": "nonpayable",
      "type": "function"
    },
    {
      "inputs": [
        {
          "internalType": "string",
          "name": "recruiterDid",
          "type": "string"
        }
      ],
      "name": "suspendBadge",
      "outputs": [],
      "stateMutability": "nonpayable",
      "type": "function"
    },
    {
      "inputs": [
        {
          "internalType": "address",
          "name": "newOwner",
          "type": "address"
        }
      ],
      "name": "transferOwnership",
      "outputs": [],
      "stateMutability": "nonpayable",
      "type": "function"
    }
  ],
  "bytecode": "0x608060405234801561001057600080fd5b5033600073ffffffffffffffffffffffffffffffffffffffff168173ffffffffffffffffffffffffffffffffffffffff16036100845760006040517f1e4fbdf700000000000000000000000000000000000000000000000000000000815260040161007b919061019e565b60405180910390fd5b6100938161009960201b60201c565b506101b9565b60008060009054906101000a900473ffffffffffffffffffffffffffffffffffffffff169050816000806101000a81548173ffffffffffffffffffffffffffffffffffffffff021916908373ffffffffffffffffffffffffffffffffffffffff1602179055508173ffffffffffffffffffffffffffffffffffffffff168173ffffffffffffffffffffffffffffffffffffffff167f8be0079c531659141344cd1fd0a4f28419497f9722a3daafe3b4186f6b6457e060405160405180910390a35050565b600073ffffffffffffffffffffffffffffffffffffffff82169050919050565b60006101888261015d565b9050919050565b6101988161017d565b82525050565b60006020820190506101b3600083018461018f565b92915050565b610c31806101c86000396000f3fe608060405234801561001057600080fd5b506004361061007d5760003560e01c8063d1f6b6b81161005b578063d1f6b6b8146100db578063debfe7d7146100f7578063f2fde38b14610113578063fd7ca99c1461012f5761007d565b80632d902fe714610082578063715018a6146100b35780638da5cb5b146100bd575b600080fd5b61009c600480360381019061009791906107e9565b61014b565b6040516100aa9291906108c9565b60405180910390f35b6100bb6101eb565b005b6100c56101ff565b6040516100d29190610933565b60405180910390f35b6100f560048036038101906100f091906107e9565b610228565b005b610111600480360381019061010c91906107e9565b610321565b005b61012d6004803603810190610128919061097a565b61041a565b005b610149600480360381019061014491906109d3565b6104a0565b005b600080600060018585604051610162929190610a72565b90815260200160405180910390206040518060400160405290816000820160009054906101000a900460ff1660ff1660ff1681526020016000820160019054906101000a900460ff1660038111156101bd576101bc610852565b5b60038111156101cf576101ce610852565b5b8152505090508060000151816020015192509250509250929050565b6101f3610627565b6101fd60006106ae565b565b60008060009054906101000a900473ffffffffffffffffffffffffffffffffffffffff16905090565b610230610627565b600060018383604051610244929190610a72565b9081526020016040518091039020905060008160000160009054906101000a900460ff1660ff16116102ab576040517f08c379a00000000000000000000000000000000000000000000000000000000081526004016102a290610ae8565b60405180910390fd5b60038160000160016101000a81548160ff021916908360038111156102d3576102d2610852565b5b021790555082826040516102e8929190610a72565b60405180910390207f35f44a0fba7f60139db5b08c91b3e2d133e0e3ab6a5e11770c113c4eb7d8584c60405160405180910390a2505050565b610329610627565b60006001838360405161033d929190610a72565b9081526020016040518091039020905060008160000160009054906101000a900460ff1660ff16116103a4576040517f08c379a000000000000000000000000000000000000000000000000000000000815260040161039b90610ae8565b60405180910390fd5b60028160000160016101000a81548160ff021916908360038111156103cc576103cb610852565b5b021790555082826040516103e1929190610a72565b60405180910390207fb1e5b055bfbfbf7c75ce9449c75e9e1e7176cfaa9da84c40d60808e5c6cd70e860405160405180910390a2505050565b610422610627565b600073ffffffffffffffffffffffffffffffffffffffff168173ffffffffffffffffffffffffffffffffffffffff16036104945760006040517f1e4fbdf700000000000000000000000000000000000000000000000000000000815260040161048b9190610933565b60405180910390fd5b61049d816106ae565b50565b6104a8610627565b600083839050116104ee576040517f08c379a00000000000000000000000000000000000000000000000000000000081526004016104e590610b54565b60405180910390fd5b60008160ff1611610534576040517f08c379a000000000000000000000000000000000000000000000000000000000815260040161052b90610bc0565b60405180910390fd5b60405180604001604052808260ff1681526020016001600381111561055c5761055b610852565b5b81525060018484604051610571929190610a72565b908152602001604051809103902060008201518160000160006101000a81548160ff021916908360ff16021790555060208201518160000160016101000a81548160ff021916908360038111156105cb576105ca610852565b5b021790555090505082826040516105e3929190610a72565b60405180910390207ff65110e2dc578f2d7757eb9d6d73163ff32e1fa74ed506e8a88feb6c9a6e96bd8260405161061a9190610be0565b60405180910390a2505050565b61062f610772565b73ffffffffffffffffffffffffffffffffffffffff1661064d6101ff565b73ffffffffffffffffffffffffffffffffffffffff16146106ac57610670610772565b6040517f118cdaa70000000000000000000000000000000000000000000000000000000081526004016106a39190610933565b60405180910390fd5b565b60008060009054906101000a900473ffffffffffffffffffffffffffffffffffffffff169050816000806101000a81548173ffffffffffffffffffffffffffffffffffffffff021916908373ffffffffffffffffffffffffffffffffffffffff1602179055508173ffffffffffffffffffffffffffffffffffffffff168173ffffffffffffffffffffffffffffffffffffffff167f8be0079c531659141344cd1fd0a4f28419497f9722a3daafe3b4186f6b6457e060405160405180910390a35050565b600033905090565b600080fd5b600080fd5b600080fd5b600080fd5b600080fd5b60008083601f8401126107a9576107a8610784565b5b8235905067ffffffffffffffff8111156107c6576107c5610789565b5b6020830191508360018202830111156107e2576107e161078e565b5b9250929050565b60008060208385031215610800576107ff61077a565b5b600083013567ffffffffffffffff81111561081e5761081d61077f565b5b61082a85828601610793565b92509250509250929050565b600060ff82169050919050565b61084c81610836565b82525050565b7f4e487b7100000000000000000000000000000000000000000000000000000000600052602160045260246000fd5b6004811061089257610891610852565b5b50565b60008190506108a382610881565b919050565b60006108b382610895565b9050919050565b6108c3816108a8565b82525050565b60006040820190506108de6000830185610843565b6108eb60208301846108ba565b9392505050565b600073ffffffffffffffffffffffffffffffffffffffff82169050919050565b600061091d826108f2565b9050919050565b61092d81610912565b82525050565b60006020820190506109486000830184610924565b92915050565b61095781610912565b811461096257600080fd5b50565b6000813590506109748161094e565b92915050565b6000602082840312156109905761098f61077a565b5b600061099e84828501610965565b91505092915050565b6109b081610836565b81146109bb57600080fd5b50565b6000813590506109cd816109a7565b92915050565b6000806000604084860312156109ec576109eb61077a565b5b600084013567ffffffffffffffff811115610a0a57610a0961077f565b5b610a1686828701610793565b93509350506020610a29868287016109be565b9150509250925092565b600081905092915050565b82818337600083830152505050565b6000610a598385610a33565b9350610a66838584610a3e565b82840190509392505050565b6000610a7f828486610a4d565b91508190509392505050565b600082825260208201905092915050565b7f6e6f206261646765000000000000000000000000000000000000000000000000600082015250565b6000610ad2600883610a8b565b9150610add82610a9c565b602082019050919050565b60006020820190508181036000830152610b0181610ac5565b9050919050565b7f656d707479204449440000000000000000000000000000000000000000000000600082015250565b6000610b3e600983610a8b565b9150610b4982610b08565b602082019050919050565b60006020820190508181036000830152610b6d81610b31565b9050919050565b7f6c6576656c206d757374206265203e2030000000000000000000000000000000600082015250565b6000610baa601183610a8b565b9150610bb582610b74565b602082019050919050565b60006020820190508181036000830152610bd981610b9d565b9050919050565b6000602082019050610bf56000830184610843565b9291505056fea264697066735822122033c3124ce88d5c7084e96d1f94d77665c46082aaa10892ab952cbf171c2daadf64736f6c63430008140033",
  "linkReferences": {},
  "deployedLinkReferences": {}
}